:020000040800F2
:1000000000800020351D00081D0300081F030008A4
:100010002103000823030008250300080000000056
:10002000000000000000000000000000270300089E
:1000300029030008000000002B0300082D0300081E
:10004000851D0008851D0008851D0008851D000808
:10005000851D0008851D000831030008851D000866
:10006000851D0008851D0008851D0008851D0008E8
:10007000851D0008851D0008851D0008851D0008D8
:10008000851D0008851D0008851D0008851D0008C8
:10009000851D0008851D0008851D0008851D0008B8
:1000A000851D0008B5030008851D0008851D000892
:1000B000851D0008851D0008851D0008851D000898
:1000C000851D0008851D0008851D0008851D000888
:1000D000851D0008851D0008851D0008851D000878
:1000E0004D030008851D00087D030008851D0008DC
:1000F000851D0008851D0008851D00080000000002
:10010000851D000800000000851D0008851D0008F1
:10011000851D0008851D0008851D0008851D000837
:10012000851D0008851D0008851D0008851D000827
:10013000851D00080000000000000000851D00086B
:10014000851D0008851D0008851D00086D03000839
:100150000348044B834202D0034B03B11847704756
:10016000A8010020A8010020000000000548064961
:100170000B1AD90F01EBA301491002D0034B03B1B5
:1001800018477047A8010020A801002000000000C7
:1001900010B5064C237843B9FFF7DAFF044B13B1CF
:1001A0000448AFF300800123237010BDA801002094
:1001B00000000000881D000808B5044B1BB104496D
:1001C0000448AFF30080BDE80840CFE7000000001E
:1001D000AC010020881D000870B50D4E0D4D761B3A
:1001E000B61006D0002455F8043B01349847A642C7
:1001F000F9D1094E094D761B01F0C6FDB61006D0A7
:10020000002455F8043B01349847A642F9D170BD4B
:10021000681E0008681E00086C1E0008681E0008A2
:1002200008B5002000F0A8FB134B98420DD0134BEB
:10023000984217D0124B984218D0124B984208D1CE
:10024000114B4FF400021A6003E00F4B4FF4800291
:100250001A600D4B186800F085FB40F20C5000F05E
:1002600073FB08BD084B00221A60F2E7064B4FF4FF
:1002700040021A60EDE700BF006CDC0200A24A04F5
:1002800000D8B805000E2707C401002008B54FF4B8
:10029000A06000F0A3FA00220221432000F0A8FA97
:1002A00008BD000010B540F2046000F04DFB074CA3
:1002B0004FF4005303221021204600F03BFA4FF484
:1002C0000051204600F086FA10BD00BF001001402A
:1002D00008B540F2026000F037FB012303224821F9
:1002E0000B4800F027FAFFF7DDFF4FF400510948F3
:1002F00000F070FAFFF794FF0121074800F097FD26
:10030000FFF7C4FF044A537BDBB2032BFBD1FEE7AC
:100310000008014000100140000000207047FEE787
:10032000FEE7FEE7FEE77047704770477047000042
:1003300008B5012000F0E8F900B908BD024B5B7B6D
:10034000012000F0F1F9F8E70000002008B54FF4B3
:10035000005000F0D9F900B908BD034B5B7B4FF4A6
:10036000005000F0E1F9F7E70000002008B502486E
:1003700000F098FF08BD00BF0000002008B50B4B3F
:100380009B7923B94FF4802000F0CEF908BD00F02E
:100390004BF9074B186800F0E5FA40F20C5000F0FA
:1003A000D3FA024800F026FDECE700BF0000002071
:1003B000C40100207047000038B50446084D05F11F
:1003C0001B0100F069FD05F12201204600F064FDEB
:1003D0004023044A0121204600F0E0FD002038BD02
:1003E000B81D0008CC01002010B50446812100F0A2
:1003F000B1FD0121204600F0ADFD002010BD000040
:1004000010B50C7814F0600434D0202C59D14B78FE
:10041000013B0A2B2AD8DFE803F057060C292929CB
:100420002929121E24000122284900F09FFE0024E1
:1004300048E00122264900F099FE002442E0254BC5
:1004400001221A704A88244B1A708A79234900F0D5
:1004500099FE002436E04B881B0A1C4A13600024D6
:1004600030E08A781A4B1A6000242BE001F0C2FABF
:10047000022427E04B780A2B1AD00B2B1DD0062B19
:1004800020D14B881B0A212B07D0222B0BD1CA88E5
:100490001C2A28BF1C22124907E0CA88092A28BF43
:1004A0000922104901E000210A4600F05FFE09E040
:1004B00001220D4900F05AFE04E08A780A4B1A60C6
:1004C00000E00024204610BD0024FBE7500200207D
:1004D00054020020C801002058020020CC01002056
:1004E000E41D0008CA1D00084C020020012908D0A4
:1004F00038B505460C46002935D1012A06D0022020
:1005000038BD012A0CBF002002207047174B1B7812
:10051000012B10D0022B14D03BB14023134A0121F0
:10052000284600F03BFD2046EAE74FF40051104812
:1005300000F050F9F1E74FF400510D4800F04CF98C
:10054000EBE70A48421E0B493F3012F8013F0133E6
:1005500001F8013F8242F8D14023074A8121284611
:1005600000F078FDD9E70220CAE700BFCC010020E7
:10057000001001400B0200200C020020431E002846
:1005800042D000BF00BF00BF00BF00BF00BF00BF20
:1005900000BF00BF00BF00BF00BF00BF00BF00BF63
:1005A00000BF00BF00BF00BF00BF00BF00BF00BF53
:1005B00000BF00BF00BF00BF00BF00BF00BF00BF43
:1005C00000BF00BF00BF00BF00BF00BF00BF00BF33
:1005D00000BF00BF00BF00BF00BF00BF00BF00BF23
:1005E00000BF00BF00BF00BF00BF00BF00BF00BF13
:1005F00000BF00BF00BF00BF00BF00BF00BF00BF03
:10060000013BB3F1FF3FBCD1704758B138B5441E30
:100610004FF47A752846FFF7B1FF013CB4F1FF3F74
:10062000F8D138BD7047000008B5344AD2F8883098
:1006300043F47003C2F88830314B1A6842F001026B
:100640001A6000225A60DA621A6822F0A85222F474
:1006500010221A604FF47F029A601A6822F48022F6
:100660001A601A6842F001021A604FF4A06324492C
:100670000A6812F0020F01D1013BF9D1204B1B682F
:1006800013F0020F00D1FEE71E4A136823F00703A0
:1006900043F0030313601A4B5A685A605A685A6051
:1006A0005A6842F480625A605A6822F0005222F47A
:1006B00070125A605A6842F0005242F450125A6066
:1006C0001A6842F080721A601A46136813F0007FAD
:1006D000FBD00B4B5A6822F003025A605A6842F072
:1006E00002025A601A46536813F0080FFBD000212B
:1006F0004FF0006000F0CCF808BD00BF00ED00E056
:100700000010024000200240064BD3F81424D3F816
:100710000034024204D0034214BF0120002070477D
:100720000020704700000140014BC3F814047047DB
:10073000000001402DE9F04101F00F0E11F0100F03
:1007400003D0042A05D04EEA020E002201260F270C
:100750000AE04EF0030EC26B1A43C263F5E7446130
:1007600005600132082A14D006FA02F41C40F8D0C1
:1007700005684FEA820C07FA0CF825EA08050EFA1C
:100780000CFC4CEA05052829E9D0482908BF04617A
:10079000E6E7002501274FF00F0805E044614660B9
:1007A00001320435102A13D007FA02FC1CEA0304B4
:1007B000F6D0466808FA05FC26EA0C0C0EFA05F697
:1007C00046EA0C062829E9D0482908BF0461E6E773
:1007D000BDE8F081016170474161704740F0BF6042
:1007E00040F40030014BD860704700BF00ED00E0DE
:1007F00010B4244BDC6804F4E06CBCF5A06F35D079
:1008000009D9BCF5C06F38D0BCF5E06F28D10424FD
:100810004FF0000C08E0BCF5407F2AD0BCF5806F9B
:100820001ED101244FF0030CCCF1040C01FA0CFC96
:10083000C4F104040F23E340134043EA0C031B01FB
:10084000DBB2114A111881F80033410900F01F0092
:10085000012303FA00F042F821005DF8044B7047D1
:10086000084B0A4CDC600224A446DDE70224A446BF
:10087000DAE700244FF0040CD6E703244FF0010C14
:10088000D2E700BF00ED00E000E100E00005FA055E
:1008900021F0604121F07F010143014B99607047D5
:1008A00000ED00E010B4234B1C6824F003041C602E
:1008B0001A6802431A60204A136943F00403136163
:1008C0004FF0E02318691D4A1060D3F80001506012
:1008D000D3F804019060D3F80801D0601869184A71
:1008E00002401A61174AC3F880216FF4E062C3F82E
:1008F00084214FF0FF32C3F88821B1B930BF0F4ACD
:1009000011684FF0E02319615168C3F80011916834
:10091000C3F80411D268C3F80821074A136923F009
:10092000040313615DF8044B704740BF20BF20BF34
:10093000E5E700BF0070004000ED00E0600200202D
:10094000040001003DF87FFF830903F1804303F5B4
:100950000433196800F01F00012202FA00F0084376
:1009600018607047034A536823F4400303435360FD
:10097000704700BF0010024010B588B08446434C59
:1009800094E80F000DF1200E0EE90F0002AB1034B9
:1009900094E8030083E803006B4683E803003C4BC4
:1009A0005B68C3F38103022B1FD03A48384A53686F
:1009B000C3F3031320336B4413F8103C20FA03F104
:1009C0005368C3F3022320336B4413F8184C536865
:1009D000C3F3C22320336B4413F8203CBCF1030F54
:1009E00052D8DFE80CF049484B4E294B5B6813F4B2
:1009F000803F30D0264BDB6A13F0804F2548264BD2
:100A000018BF1846224BDB6A13F4803F0FD0204AF0
:100A1000D36AC3F303130133D26AC2F30322911CD6
:100A20000F2A08BF1421B0FBF3F001FB00F0184BB4
:100A3000DB6A03F00F030133B0FBF3F0144A536891
:100A4000C3F38343526812F0005F06D043F01003F3
:100A500003FB0000AAE71148F0E70E2BF8D89A1C18
:100A60000D2B05D100EB4003400800EB43009DE750
:100A700002FB00F09AE7084608B010BD21FA04F026
:100A8000FAE721FA03F0F7E70020F5E7A01D0008D8
:100A90000010024000127A00006CDC0200093D00E8
:100AA000090301F1A04101F5805103324FEA920C94
:100AB000032A06D9002350F8042B0A6001339C4511
:100AC000F9D800207047000010B501F1030EBEF107
:100AD000030F11D94FEA9E0C02460023074C2168F0
:100AE00042F8041B01339C45F9D82EF00303BEF1F4
:100AF000030F98BF0423184410BD00BF001000501E
:100B00000123437040230381012901D00020704755
:100B1000012303700823C370042303714FF4A073EF
:100B2000438102238370F1E710B504464FF0A042E1
:100B3000136943F001031361144B11460A6912F063
:100B4000010F01D0013BF9D1D4F8F8300BB10320EB
:100B500098474FF0A0439A6B42F450229A639A68E8
:100B600022F080029A609A6B42F400129A636379D1
:100B70002BB14FF0A042936B43F480139363D4F8EE
:100B8000FC300BB114209847002010BD400D03002D
:100B900008B54FF0A0431A6922F4F8621A6189017E
:100BA00041F020011961084B4FF0A0410A6912F091
:100BB000200F01D0013BF9D1D0F8F8300BB1032060
:100BC0009847002008BD00BF400D030008B54FF056
:100BD000A04310221A61084B4FF0A0410A6912F09D
:100BE000100F01D0013BF9D1D0F8F8300BB1032040
:100BF0009847002008BD00BF400D030008B501293B
:100C00000BD0A1B94FF0A043DA6822F00052DA60AD
:100C1000DA6842F08042DA6009E04FF0A043DA6817
:100C200022F08042DA60DA6842F00052DA60D0F8EE
:100C3000FC300BB132209847002008BD70B582B05F
:100C400006464FF0A0439A6A019200220092C3F830
:100C5000002ED3F8002822F4C052C3F80028D3F89D
:100C60000028C3F800280378012B4FD0102130460C
:100C7000FFF78EFF3046FFF7A9FF4FF0A043002299
:100C8000C3F81028C3F814284FF0FF31C3F8181820
:100C9000C3F81C28337913B33E4B1146FF241D685B
:100CA000002DBDBF186840F0904018601A60D3F85E
:100CB0000052002DBDBFD3F8000240F09040C3F8B1
:100CC0000002C3F800221A61C3F810229C60C3F826
:100CD00008420131203396F804C08C45DFD84FF02C
:100CE000A043002098616FF080425A614FF0FF31BD
:100CF00059605A61284A9A619969284A0A409A615A
:100D00009969274A0A439A6102B070BD4FF0A04327
:100D1000D3F8002822F00302C3F80028D3F80028F3
:100D200042F00302C3F800285A6A120C12045A62F5
:100D30005A6A42F080025A62019A92B20192019A72
:100D400042F480020192019A120C12040192019A5B
:100D500042F080020192019A9A621248124980225E
:100D6000124C03881A44009B9BB20093009B30F8FE
:100D7000025F43EA05430093009B1B0C1B04009396
:100D8000009B13430093009B41F8043BA142E8D130
:100D90006CE700BF0009005000080080E7C7C3FFF0
:100DA00018383C00181E00080401005010010050C3
:100DB00082B000230193019B23F07F030193019BE9
:100DC00043F018030193019B23F400230193019B3B
:100DD00043F400230193019B23F0C0430193019B43
:100DE00043F0C0430193019A4FF0A043C3F8102B86
:100DF00002B070478379CBB14FF0A043D3F80838E5
:100E000013F0010F12D082B04FF0A042D2F8003E92
:100E10000193019B23F002030193019B23F0010343
:100E20000193019BC2F8003E02B07047704738B58D
:100E30000446FFF765FE012363734FF0A045AB68DE
:100E400023F00103AB602046FFF76EFE0021204631
:100E5000FFF7D4FED5F8043843F00203C5F8043890
:100E6000D4F8FC300BB1032098472046FFF7E6FE8C
:100E70004FF0A042D2F8043823F00203C2F804383D
:100E8000D4F8FC300BB1032098474FF0A042936890
:100E900043F00103936038BD30B48A7802F07F03D9
:100EA00091F803C00CF0030C8C8812F0800F21D154
:100EB00003EB830200EB82008C304FF480319940C9
:100EC00003F1207258325201126812F4004F0BD114
:100ED0001F4D154045EA040242EA8C42002542F0CB
:100EE000805242F40042A5B903F1207358335B01EC
:100EF0001A6013E003EB830200EB82003C30012117
:100F0000994003F1207248325201126812F4004FE6
:100F100010D003F1207348335B011A60446080F8FD
:100F200000C04FF0A042D2F81C381943C2F81C1878
:100F300030BC7047064D1540254345EA8C4222F0EF
:100F400070759A0502F070722A430125C7E700BF49
:100F500000F8F3FF01F07F0311F0800F13D14FF47D
:100F600080329A4003F1207358335B01196821F4F1
:100F7000004119604FF0A041D1F81C3823EA020368
:100F8000C1F81C38704701229A4003F1207348339E
:100F90005B01196821F400411960EBE730B501F0FD
:100FA0007F0101EB810400EB8404C4F89420C4F8B1
:100FB00098300022C4F89C2001F1207C0CF1580CE0
:100FC0004FEA4C1CDCF80040DCF8102002F0604EC8
:100FD000C3B901EB810300EB8303D3F890304EEAF1
:100FE000030343F40023CCF8103001EB810300EB42
:100FF000830393F88C30012B1ED044F00444CCF8CA
:10100000004030BD31B9D0F890204EEA020343F4DD
:101010000023E8E701EB810200EB8202D2F8905056
:101020005A1E2A44B2FBF5F24EEAC243C2F3090249
:1010300005FB02F21343D6E701EB810100EB8101CE
:1010400091F88D3013B144F00054D6E744F0805449
:10105000D3E7000030B583B001F07F010025019592
:10106000009501EB810400EB84046264A364E564F1
:1010700001F12072483252011468019414690094FD
:10108000009CE40CE4040094009C24F0FF5424F43D
:10109000C01400946BBB009B43F400230093009B9F
:1010A000136101EB810300EB830393F83C30012BC8
:1010B00041D0019B43F004430193019B136001EB7A
:1010C000810300EB830393F83C30012B41D001EB0B
:1010D000810300EB8300836C4BB14FF0A042D2F848
:1010E0003408012303FA01F10143C2F8341803B0B4
:1010F00030BD81B9046C9C4238BF8464009B43F4CA
:1011000000230093009B01EB810400EB8404A46C9A
:1011100023430093C3E701EB810400EB8404246CB8
:10112000009D013B2344B3FBF4F30F4C04EAC3439B
:101130002B430093E6E74FF0A043D3F8083813F4AD
:10114000807F019B0CBF43F0005343F08053019319
:10115000AFE701EB810300EB8303B3F84820586C41
:10116000FFF79EFCC3E700BF0000F81F08B5134659
:10117000C2618261022282730A460021FFF76AFF80
:10118000002008BD08B51346C26182610322827344
:101190000A460021FFF702FF002008BD10B50446F3
:1011A0000423837300231A461946FFF753FF204692
:1011B000FFF7FEFD002010BD10B504460523837324
:1011C00000231A461946FFF7E9FE2046FFF7F0FD17
:1011D000002010BD82B001F07F030022019211F0C7
:1011E000800F09D103F1207358335B011A6842F470
:1011F00000121A6002B0704703F1207348335B019C
:101200001A680192019A002A06DB019A42F4001240
:101210000192019A1A60EDE7019A42F08042019230
:10122000F3E782B001F07F030022019211F0800FFA
:1012300017D103F1207258325201116801910199BE
:1012400021F40011019103EB830300EB830393F876
:101250008C30023BDBB2012B1FD9019B136002B023
:10126000704703F1207248325201116801910199CF
:1012700021F40011019103EB830300EB830393F846
:101280003C30023BDBB2012B02D9019B1360E6E745
:10129000019B43F080530193F7E7019B43F0805398
:1012A0000193DAE72DE9F04F8BB04FF0A0435E6970
:1012B0009A695B6913F0010B40F0EF828246164099
:1012C00000F0EF8216F4002033D116F4802F7BD18A
:1012D00016F0020F03D04FF0A04302225A6116F419
:1012E000806F40F0268116F4006F40F02D81002EB3
:1012F000C0F2638116F0080F40F06D8116F0100FF8
:1013000040F0758116F4805F40F0D28116F4005FE2
:1013100040F0768216F4801F40F0B88216F4001F69
:1013200000F0BC824FF0A0434FF400125A6101203C
:10133000B4E2002307934FF0A042D2F81C38D2F851
:1013400018281340C3F3034413F4702F3AD05F46B8
:101350004FF0A0484FF040090FE00123C5F8083BCB
:10136000504600F0CCFA19E0079B13F0400F18BF6D
:10137000C5F8089B0137640822D0F9B214F0010FB8
:10138000F8D04D0105F1A045D5F8083BD8F8142850
:1013900013400793079B13F0010FDED1079B13F057
:1013A000020F1CBF0223C5F8083B079B13F0080F70
:1013B000DAD0504600F060FC0823C5F8083BD3E7BC
:1013C000012082E7012080E7002308934FF0A0422C
:1013D000D2F81C38D2F81828134013F00F0800F088
:1013E000A6805F464FF0A0490496CDF814B0CDF822
:1013F00008A03DE0D9F83438012202FA0AF123EAC4
:101400000103C9F83438CBF808295146029800F096
:10141000A7FA46E0D8F800309BB29E427DD2EB6C32
:10142000AC6C9C421BD9E41A2B6C9C4228BF1C4616
:10143000E61CB608A2B25146686CFFF731FB6B6C34
:1014400023446B64EB6C1C44EC64AB6C9C42E1D1B8
:10145000D9F83438019A1340C9F83438DAE7DDF89E
:101460000C808023CBF8083901375FEA580857D041
:101470005FFA87FA18F0010FF6D055466C0104F1B7
:10148000A04BDBF80829D9F83438D9F81018EB400C
:10149000DB01DBB20B4313400893089B13F0010FF1
:1014A000A8D1089B13F0080F1CBF0823CBF80839FC
:1014B000089B13F0400F1CBF4023CBF80839089B52
:1014C00013F0020F1CBF0223CBF80839089B13F05E
:1014D000800FC9D005EB8502029800EB8202936C65
:1014E000D16C5B1A04F1A04404F61816D4F818194C
:1014F00089B2126C934228BF13460333B1EB930FAA
:10150000AFD90123AB40DB43019305EB850500EB2D
:101510008505CDF80C80B04681E7DDF80C80A0E7AA
:10152000049EDDF814B0DDF808A00120D0E601200B
:10153000CEE64FF0A0439A6922F480629A614FF49C
:1015400080625A610120CEE69AF806308DF8193093
:101550004FF0A043D3F8083803F001038DF81A3098
:101560009AF80D30DBB2032B14BF002301238DF852
:101570001B309AF80D308AF80F3004238AF80D30AA
:101580009DF819302BB19DF81A3013B19DF81B301E
:1015900033B94FF0A0434FF400625A610120A6E630
:1015A0004FF0A042D2F8003E43F00303C2F8003EE1
:1015B00000210120FFF776F9EBE79AF80F308AF85F
:1015C0000D3003238AF80D304FF0A0434FF0004256
:1015D0005A6101208EE6B44B1B6813B11B6850465C
:1015E00098474FF0A04308225A61012086E64FF049
:1015F000A0431A6A09929A6922F010029A61099B23
:1016000003F00F03099DC5F30A1509995A0102F168
:10161000A042D2F8102B012B17D0099AC2F34342F3
:10162000022A2CD0062A22D1082D20D1C1F3C131A3
:101630000B431CD108210AF12400FFF745FADAF820
:101640009C300833CAF89C3011E0984B13404BB9DA
:101650004FF0A042D2F8203B23F0404343F0006318
:10166000C2F8203B099BC3F34343022B1ED04FF02B
:10167000A042936943F010039361012042E61C46A7
:10168000002DF4D004EB84070AEB87072946D7F82E
:101690009400FFF719FAD7F894302B44C7F8943028
:1016A000D7F89C301D44C7F89C50E0E70124E7E7D9
:1016B0004FF0A042D2F8043823F00103C2F80438F6
:1016C00000215046FFF764FA9AF804308BB1FF22EC
:1016D0005FFA8BF35B0103F1A043C3F80829C3F859
:1016E000082B0BF1010B9AF804105FFA8BF3994267
:1016F000EED84FF0A0444FF0FF33C4F81838D4F8B8
:101700001C3823F47023C4F81C38D4F81C3823F098
:101710000F03C4F81C384FF00113C4F81C380B2316
:10172000C4F81438C4F81038D4F8003823F4FE6331
:10173000C4F80038D4F80038C4F800385046FFF731
:1017400037FB4FF480536361D4F8003923F003036F
:10175000C4F80039D4F8003923F44023C4F8003920
:10176000D4F8003923F07073C4F80039D4F8003984
:1017700013F4004F0FD1D4F8002942F04002C4F80E
:101780000029D4F80029C4F80029D4F8002942F42B
:101790000042C4F800294023CAF8403000238AF8E8
:1017A0003C304FF0A043D3F8002B22F00302C3F8E3
:1017B000002BD3F8002B22F44022C3F8002BD3F8DF
:1017C000003B13F4004F11D14FF0A043D3F8002B8E
:1017D00042F04002C3F8002BD3F8002BC3F8002BD3
:1017E000D3F8002B42F40042C3F8002B4023CAF880
:1017F000903000238AF88C3001208AF80D0085E5AE
:101800004FF0A043D3F80828D3F80009C2F34102EF
:101810002749895C0143C3F80019D3F8041821F45F
:101820008071C3F80418D3F8041841F48071C3F828
:101830000418204B9B5C032B16D001238AF801303F
:101840004023AAF808304FF0A043DA6822F470521F
:10185000DA60DA6842F4A052DA604FF0A0434FF445
:1018600000525A61012055E500238AF801304FF4F7
:101870000073AAF808304FF0A043DA6822F47052DF
:10188000DA60DA6842F41052DA60E6E74FF0A0431B
:101890004FF480125A61012040E500200BB0BDE8F2
:1018A000F08F3046FAE700BF5C0200200000F81F0E
:1018B000201E0008241E00087047D0F8DC301B787A
:1018C0001380D0F8DC007047D0F8E0309B781380AC
:1018D000D0F8E0007047D0F8E43053F821000378E6
:1018E000138070477047704708B5D0F8F0309847BC
:1018F00008BD08B5D0F8F030984708BD704710B55E
:10190000044619BB837B032B01D0002010BD8369E3
:10191000D0F890108B420BD95B1A8361D0F89420D9
:1019200099428CBF9BB28BB20021FFF737FBECE7EB
:10193000437BDBB2032B03D02046FFF72FFCE4E709
:10194000D0F8F430002211469847F5E70A46437B69
:10195000DBB2032BD9D1D0F8F43000219847D4E77B
:1019600010B5044600293BD1837B022B01D0002017
:1019700010BD8269036C9A4212D8C169B1FBF3F2BF
:1019800003FB121222B98B4202D8036A994213D385
:10199000637BDBB2032B1CD02046FFF70DFCE6E790
:1019A000D31A8361426CFFF755FB00231A46194690
:1019B0002046FFF7F3FADAE700231A461946FFF745
:1019C00049FB002121620B460A462046FFF7E6FA52
:1019D000CDE7D4F8F4300022012120469847DBE718
:1019E0000A46437BDBB2032BC1D1D0F8F43001218E
:1019F0009847BCE710B504468021FFF7EBFB0021B8
:101A00002046FFF7E7FB2046FFF7D2F910BD0000A4
:101A100010B504468B781B4A1370012B08D8427B03
:101A2000D2B2022A07D0032A11D0FFF7E3FF01E068
:101A3000FFF7E0FF10BD33B10121017303234373AE
:101A4000D0F8E83098472046FFF7A8FBF2E753B9F3
:101A50000223437300210173D0F8EC3098472046ED
:101A6000FFF79CFBE6E7017B0129F8D0D0F8EC30CA
:101A70009847044B19782173D4F8E83020469847EA
:101A8000EDE700BF7002002000B583B00023019392
:101A9000CB88012B08D1437BDBB2022B09D0032B6F
:101AA0000CD0FFF7A7FF01E0FFF7A4FF03B05DF83C
:101AB00004FB012201A9FFF759FBF7E7012200F11E
:101AC0000C01FFF753FBF1E770B582B005460C46F9
:101AD0000B7813F003032DD149880E0AB1F5806FFE
:101AE00022D2C9B205291FD8731E154A52F82330D5
:101AF0000DF106029847BDF80630CBB1E288BAB1C5
:101B0000934228BF1346ADF80630012E06D0BDF82B
:101B1000062001462846FFF729FB09E0402A04BFBA
:101B20000823ADF80630F2E721462846FFF762FFAA
:101B300002B070BD012BFBD1D0F8F0309847F7E729
:101B40005C1E000838B504468B88E3B9CB88D3B94E
:101B5000437BDBB2032B10D04D8805F07F054FF09F
:101B6000A042D2F8003843EA0513C2F80038FFF764
:101B700015FB2DB10223637308E0FFF73BFF05E07F
:101B80000123637302E02046FFF734FF38BD10B530
:101B900082B004460B7813F0600F03D0FFF72AFFE2
:101BA00002B010BD437B023B012BF9D84B88012BBF
:101BB0000CD0022BF4D10B79002BF1D14FF0A043C4
:101BC000D3F804380193FFF7E9FAE9E74361D0F865
:101BD000F03098472046FFF7E1FAE1E738B50546CF
:101BE0000C460B7803F00303012B18D0022B25D0F1
:101BF00013B1FFF7FFFE38BD437B023B012B0BD82F
:101C00004B88012BF7D100234361D0F8F03098477F
:101C10002846FFF7C3FAEEE7FFF7ECFEEBE7437B5E
:101C2000DBB2022B07D0032BE5D10B79012BE2D9D4
:101C3000FFF7E0FEDFE7FFF7DDFEDCE70979437B36
:101C4000DBB2022B11D0032BD5D163884BB911F035
:101C50007F0F06D0FFF7E5FAD5F8F0302146284689
:101C600098472846FFF79AFAC5E711F07F0FC2D0D0
:101C7000FFF7B0FABFE7000010B582B0044690F855
:101C800024108DF8001090F825008DF8010094F8CC
:101C9000272094F8263003EB0223ADF8023094F8A5
:101CA000293094F8282002EB032292B2ADF80420E8
:101CB00094F82BC094F82A3003EB0C239BB2ADF8B8
:101CC0000630236201F06003202B11D0402B0CD092
:101CD0002BB101F080012046FFF77CFA05E0144BA0
:101CE00053F82030694620469847002002B010BDC6
:101CF000637BDBB2032B16D1D2B2012A0ED8D4F803
:101D0000F030694620469847BDF80630002BECD1EC
:101D10000028EAD12046FFF741FAE6E76946204667
:101D2000FFF768FEE1E769462046FFF763FEDCE760
:101D3000281E00080D488546FEF776FC0C480D4924
:101D40000D4A002302E0D458C4500433C4188C4216
:101D5000F9D30A4A0A4C002301E013600432A2427C
:101D6000FBD3FEF739FAFEF7B3FAFEE70080002056
:101D700000000020A8010020701E0008A80100201B
:101D800074020020FEE70000F8B500BFF8BC08BCF4
:101D90009E467047F8B500BFF8BC08BC9E46704729
:101DA000000000000000000001020304060708090B
:101DB0000000000001020304090229000101008063
:101DC0003209040000020300000009211101000192
:101DD000221C0007058103400001070501034000A4
:101DE000010000000600FF0901A1011901294015A9
:101DF000012540750895408100190129409100C0D6
:101E00001201000200000040830486190001010253
:101E100003010000040309044000800000000000EA
:101E20000000030003020102E5180008DD1B0008A2
:101E3000B91800088F1B0008B9180008451B0008D6
:101E4000C91A0008E7180008891A0008111A0008C2
:101E5000E9180008F3180008FD180008BB1800086E
:081E6000C9180008D71800089A
:041E6800B9010008B4
:041E6C0091010008D8
:101E70000000000000000000000000000000000062
:101E80000000000000000000000000000000000052
:101E90000000000000000000000000000000000042
:101EA0000000000000000000000000000000000032
:101EB0000000000000000000000000000000000022
:101EC0000000000000000000000000000000000012
:101ED0000000000000000000000000000000000002
:101EE00000000000000000000000000000000000F2
:101EF00000000000000000000000000000000000E2
:101F000000000000000000000000000000000000D1
:101F100000000000000000000000000000000000C1
:101F200000000000000000000000000000000000B1
:101F300000000000000000000000000000000000A1
:101F4000000000000000000000000000001E00086B
:101F5000B81D000890010020B9030008E90300083B
:101F600001040008ED0400087D0500080B060008C8
:101F700014030000420000004F0000004F0000006A
:101F80005400000000000000240300005500000081
:101F9000530000004200000020000000420000004A
:101FA0004F0000004F00000054000000000000003F
:101FB000240300004700000044000000330000003C
:101FC0003200000045000000310000003000000039
:101FD0003300000000000000100300004E0000006D
:101FE0004800000043000000000000001003000053
:101FF0004E00000048000000430000000000000008
:10200000141E0008000100201801002040010020DB
:08201000680100207C010020A2
:0400000508001D359D
:00000001FF
